{
  "address": "0xd67Da31889E1EC7423cab31c68cD6D3FE1fc6D00",
  "abi": [
    {
      "inputs": [
        {
          "internalType": "string",
          "name": "_name",
          "type": "string"
        },
        {
          "internalType": "string",
          "name": "_symbol",
          "type": "string"
        },
        {
          "internalType": "uint8",
          "name": "_decimals",
          "type": "uint8"
        }
      ],
      "stateMutability": "nonpayable",
      "type": "constructor"
    },
    {
      "anonymous": false,
      "inputs": [
        {
          "indexed": false,
          "internalType": "address",
          "name": "from",
          "type": "address"
        },
        {
          "indexed": false,
          "internalType": "address",
          "name": "to",
          "type": "address"
        },
        {
          "indexed": false,
          "internalType": "uint256",
          "name": "amount",
          "type": "uint256"
        }
      ],
      "name": "Transfer",
      "type": "event"
    },
    {
      "inputs": [
        {
          "internalType": "address",
          "name": "",
          "type": "address"
        }
      ],
      "name": "balanceOf",
      "outputs": [
        {
          "internalType": "uint256",
          "name": "",
          "type": "uint256"
        }
      ],
      "stateMutability": "view",
      "type": "function"
    },
    {
      "inputs": [],
      "name": "decimals",
      "outputs": [
        {
          "internalType": "uint8",
          "name": "",
          "type": "uint8"
        }
      ],
      "stateMutability": "view",
      "type": "function"
    },
    {
      "inputs": [],
      "name": "name",
      "outputs": [
        {
          "internalType": "string",
          "name": "",
          "type": "string"
        }
      ],
      "stateMutability": "view",
      "type": "function"
    },
    {
      "inputs": [],
      "name": "symbol",
      "outputs": [
        {
          "internalType": "string",
          "name": "",
          "type": "string"
        }
      ],
      "stateMutability": "view",
      "type": "function"
    },
    {
      "inputs": [],
      "name": "totalSupply",
      "outputs": [
        {
          "internalType": "uint256",
          "name": "",
          "type": "uint256"
        }
      ],
      "stateMutability": "view",
      "type": "function"
    }
  ],
  "transactionHash": "0xea5def7f1908f4473974c43b398de3c91fb3212d6903c649a30ee23b5a0b7c99",
  "args": [
    "Honour",
    "HON",
    18
  ],
  "numDeployments": 1,
  "solcInputHash": "f036578cf0e71261eb99dc389f4bca1c",
  "bytecode": "0x60a060405234801561001057600080fd5b5060405161053a38038061053a83398101604081905261002f916101cc565b8251610042906000906020860190610087565b508151610056906001906020850190610087565b5060f81b7fff00000000000000000000000000000000000000000000000000000000000000166080525061029a9050565b82805461009390610249565b90600052602060002090601f0160209004810192826100b557600085556100fb565b82601f106100ce57805160ff19168380011785556100fb565b828001600101855582156100fb579182015b828111156100fb5782518255916020019190600101906100e0565b5061010792915061010b565b5090565b5b80821115610107576000815560010161010c565b600082601f83011261013157600080fd5b81516001600160401b038082111561014b5761014b610284565b604051601f8301601f19908116603f0116810190828211818310171561017357610173610284565b8160405283815260209250868385880101111561018f57600080fd5b600091505b838210156101b15785820183015181830184015290820190610194565b838211156101c25760008385830101525b9695505050505050565b6000806000606084860312156101e157600080fd5b83516001600160401b03808211156101f857600080fd5b61020487838801610120565b9450602086015191508082111561021a57600080fd5b5061022786828701610120565b925050604084015160ff8116811461023e57600080fd5b809150509250925092565b600181811c9082168061025d57607f821691505b6020821081141561027e57634e487b7160e01b600052602260045260246000fd5b50919050565b634e487b7160e01b600052604160045260246000fd5b60805160f81c6102836102b76000396000609601526102836000f3fe608060405234801561001057600080fd5b50600436106100575760003560e01c806306fdde031461005c57806318160ddd1461007a578063313ce5671461009157806370a08231146100ca57806395d89b41146100ea575b600080fd5b6100646100f2565b60405161007191906101bd565b60405180910390f35b61008360025481565b604051908152602001610071565b6100b87f000000000000000000000000000000000000000000000000000000000000000081565b60405160ff9091168152602001610071565b6100836100d836600461018d565b60036020526000908152604090205481565b610064610180565b600080546100ff90610212565b80601f016020809104026020016040519081016040528092919081815260200182805461012b90610212565b80156101785780601f1061014d57610100808354040283529160200191610178565b820191906000526020600020905b81548152906001019060200180831161015b57829003601f168201915b505050505081565b600180546100ff90610212565b60006020828403121561019f57600080fd5b81356001600160a01b03811681146101b657600080fd5b9392505050565b600060208083528351808285015260005b818110156101ea578581018301518582016040015282016101ce565b818111156101fc576000604083870101525b50601f01601f1916929092016040019392505050565b600181811c9082168061022657607f821691505b6020821081141561024757634e487b7160e01b600052602260045260246000fd5b5091905056fea264697066735822122000fd051f83eab15793e42bb433ac9a87f1e9fbd5df1860149271bdc6e293a5fe64736f6c63430008070033",
  "devdoc": {
    "author": "Modified from Solmate (https://github.com/Rari-Capital/solmate/blob/main/src/tokens/ERC20.sol)Modified from Uniswap (https://github.com/Uniswap/uniswap-v2-core/blob/master/contracts/UniswapV2ERC20.sol)Modified for this use by stripping all transfer and approval logic + associated events.",
    "kind": "dev",
    "methods": {},
    "version": 1
  },
  "userdoc": {
    "kind": "user",
    "methods": {},
    "notice": "Gas efficient ERC20 to explore alternative currency designs",
    "version": 1
  },
  "storageLayout": {
    "storage": [
      {
        "astId": 12,
        "contract": "contracts/ERC20.sol:ERC20",
        "label": "name",
        "offset": 0,
        "slot": "0",
        "type": "t_string_storage"
      },
      {
        "astId": 14,
        "contract": "contracts/ERC20.sol:ERC20",
        "label": "symbol",
        "offset": 0,
        "slot": "1",
        "type": "t_string_storage"
      },
      {
        "astId": 18,
        "contract": "contracts/ERC20.sol:ERC20",
        "label": "totalSupply",
        "offset": 0,
        "slot": "2",
        "type": "t_uint256"
      },
      {
        "astId": 22,
        "contract": "contracts/ERC20.sol:ERC20",
        "label": "balanceOf",
        "offset": 0,
        "slot": "3",
        "type": "t_mapping(t_address,t_uint256)"
      }
    ],
    "types": {
      "t_address": {
        "encoding": "inplace",
        "label": "address",
        "numberOfBytes": "20"
      },
      "t_mapping(t_address,t_uint256)": {
        "encoding": "mapping",
        "key": "t_address",
        "label": "mapping(address => uint256)",
        "numberOfBytes": "32",
        "value": "t_uint256"
      },
      "t_string_storage": {
        "encoding": "bytes",
        "label": "string",
        "numberOfBytes": "32"
      },
      "t_uint256": {
        "encoding": "inplace",
        "label": "uint256",
        "numberOfBytes": "32"
      }
    }
  }
}