{
  "address": "0x940c4e6D4A603707154ab663bDe529e0467B4cF5",
  "abi": [
    {
      "inputs": [
        {
          "internalType": "address",
          "name": "_reserve",
          "type": "address"
        }
      ],
      "stateMutability": "nonpayable",
      "type": "constructor"
    },
    {
      "inputs": [],
      "name": "Unbalanced",
      "type": "error"
    },
    {
      "anonymous": false,
      "inputs": [
        {
          "indexed": true,
          "internalType": "address",
          "name": "forgiver",
          "type": "address"
        },
        {
          "indexed": true,
          "internalType": "address",
          "name": "forgiven",
          "type": "address"
        },
        {
          "indexed": false,
          "internalType": "uint256",
          "name": "amount",
          "type": "uint256"
        }
      ],
      "name": "Accepted",
      "type": "event"
    },
    {
      "anonymous": false,
      "inputs": [
        {
          "indexed": true,
          "internalType": "address",
          "name": "forgiver",
          "type": "address"
        },
        {
          "indexed": true,
          "internalType": "address",
          "name": "forgiven",
          "type": "address"
        },
        {
          "indexed": false,
          "internalType": "uint256",
          "name": "amount",
          "type": "uint256"
        }
      ],
      "name": "Forgiven",
      "type": "event"
    },
    {
      "anonymous": false,
      "inputs": [
        {
          "indexed": true,
          "internalType": "address",
          "name": "proposer",
          "type": "address"
        },
        {
          "indexed": true,
          "internalType": "address",
          "name": "receiver",
          "type": "address"
        },
        {
          "indexed": false,
          "internalType": "uint256",
          "name": "amount",
          "type": "uint256"
        }
      ],
      "name": "Honoured",
      "type": "event"
    },
    {
      "anonymous": false,
      "inputs": [
        {
          "indexed": true,
          "internalType": "address",
          "name": "proposer",
          "type": "address"
        },
        {
          "indexed": true,
          "internalType": "address",
          "name": "receiver",
          "type": "address"
        },
        {
          "indexed": false,
          "internalType": "uint256",
          "name": "amount",
          "type": "uint256"
        }
      ],
      "name": "Proposed",
      "type": "event"
    },
    {
      "anonymous": false,
      "inputs": [
        {
          "indexed": false,
          "internalType": "address",
          "name": "from",
          "type": "address"
        },
        {
          "indexed": false,
          "internalType": "address",
          "name": "to",
          "type": "address"
        },
        {
          "indexed": false,
          "internalType": "uint256",
          "name": "amount",
          "type": "uint256"
        }
      ],
      "name": "Transfer",
      "type": "event"
    },
    {
      "inputs": [
        {
          "internalType": "address",
          "name": "forgiver",
          "type": "address"
        }
      ],
      "name": "accept",
      "outputs": [],
      "stateMutability": "nonpayable",
      "type": "function"
    },
    {
      "inputs": [
        {
          "internalType": "address",
          "name": "",
          "type": "address"
        }
      ],
      "name": "balanceOf",
      "outputs": [
        {
          "internalType": "uint256",
          "name": "",
          "type": "uint256"
        }
      ],
      "stateMutability": "view",
      "type": "function"
    },
    {
      "inputs": [],
      "name": "decimals",
      "outputs": [
        {
          "internalType": "uint8",
          "name": "",
          "type": "uint8"
        }
      ],
      "stateMutability": "view",
      "type": "function"
    },
    {
      "inputs": [
        {
          "internalType": "address",
          "name": "forgiven",
          "type": "address"
        },
        {
          "internalType": "uint256",
          "name": "amount",
          "type": "uint256"
        }
      ],
      "name": "forgive",
      "outputs": [],
      "stateMutability": "nonpayable",
      "type": "function"
    },
    {
      "inputs": [
        {
          "internalType": "address",
          "name": "proposer",
          "type": "address"
        },
        {
          "internalType": "uint256",
          "name": "amount",
          "type": "uint256"
        }
      ],
      "name": "honour",
      "outputs": [],
      "stateMutability": "nonpayable",
      "type": "function"
    },
    {
      "inputs": [],
      "name": "name",
      "outputs": [
        {
          "internalType": "string",
          "name": "",
          "type": "string"
        }
      ],
      "stateMutability": "view",
      "type": "function"
    },
    {
      "inputs": [
        {
          "internalType": "address",
          "name": "receiver",
          "type": "address"
        },
        {
          "internalType": "uint256",
          "name": "amount",
          "type": "uint256"
        }
      ],
      "name": "propose",
      "outputs": [],
      "stateMutability": "nonpayable",
      "type": "function"
    },
    {
      "inputs": [],
      "name": "reserve",
      "outputs": [
        {
          "internalType": "contract ERC20",
          "name": "",
          "type": "address"
        }
      ],
      "stateMutability": "view",
      "type": "function"
    },
    {
      "inputs": [],
      "name": "symbol",
      "outputs": [
        {
          "internalType": "string",
          "name": "",
          "type": "string"
        }
      ],
      "stateMutability": "view",
      "type": "function"
    },
    {
      "inputs": [],
      "name": "totalSupply",
      "outputs": [
        {
          "internalType": "uint256",
          "name": "",
          "type": "uint256"
        }
      ],
      "stateMutability": "view",
      "type": "function"
    }
  ],
  "transactionHash": "0xfe101f53e9399f2e80d95b0086db78964dbf6510cdf0b2d736a304dee64b8816",
  "args": [
    "0xd67Da31889E1EC7423cab31c68cD6D3FE1fc6D00"
  ],
  "numDeployments": 3,
  "solcInputHash": "3cf0b78d038c80e300aff41b416e2cd6",
  "bytecode": "0x60a060405234801561001057600080fd5b5060405161098a38038061098a83398101604081905261002f91610177565b60408051808201825260068152652427a727aaa960d11b6020808301918252835180850190945260038452622427a760e91b90840152815191929160129161007a91600091906100de565b50815161008e9060019060208501906100de565b5060f81b7fff00000000000000000000000000000000000000000000000000000000000000166080525050600480546001600160a01b0319166001600160a01b03929092169190911790556101e2565b8280546100ea906101a7565b90600052602060002090601f01602090048101928261010c5760008555610152565b82601f1061012557805160ff1916838001178555610152565b82800160010185558215610152579182015b82811115610152578251825591602001919060010190610137565b5061015e929150610162565b5090565b5b8082111561015e5760008155600101610163565b60006020828403121561018957600080fd5b81516001600160a01b03811681146101a057600080fd5b9392505050565b600181811c908216806101bb57607f821691505b602082108114156101dc57634e487b7160e01b600052602260045260246000fd5b50919050565b60805160f81c61078a6102006000396000610105015261078a6000f3fe608060405234801561001057600080fd5b506004361061009e5760003560e01c8063589de5df11610066578063589de5df1461013957806370a082311461014c57806395d89b411461016c5780639f00592014610174578063cd3293de1461018757600080fd5b806306fdde03146100a357806318160ddd146100c157806318be5af9146100d857806321038b4c146100ed578063313ce56714610100575b600080fd5b6100ab6101b2565b6040516100b8919061067f565b60405180910390f35b6100ca60025481565b6040519081526020016100b8565b6100eb6100e6366004610655565b610240565b005b6100eb6100fb366004610655565b61034b565b6101277f000000000000000000000000000000000000000000000000000000000000000081565b60405160ff90911681526020016100b8565b6100eb610147366004610655565b610412565b6100ca61015a366004610633565b60036020526000908152604090205481565b6100ab610487565b6100eb610182366004610633565b610494565b60045461019a906001600160a01b031681565b6040516001600160a01b0390911681526020016100b8565b600080546101bf90610703565b80601f01602080910402602001604051908101604052809291908181526020018280546101eb90610703565b80156102385780601f1061020d57610100808354040283529160200191610238565b820191906000526020600020905b81548152906001019060200180831161021b57829003601f168201915b505050505081565b3360009081526005602090815260408083206001600160a01b03861684529091529020548110156102b357610275338261051e565b3360009081526005602090815260408083206001600160a01b0386168452909152812080548392906102a89084906106ec565b909155506103069050565b3360008181526005602090815260408083206001600160a01b03871684529091529020546102e1919061051e565b3360009081526005602090815260408083206001600160a01b03861684529091528120555b60405181815233906001600160a01b038416907f821326e4caf39c3edf2ed1eaf34f0ad348d1378de15d04f4e7c4a026ab355cea906020015b60405180910390a35050565b3360009081526003602052604090205481118061037f57506001600160a01b03821660009081526003602052604090205481115b1561039d576040516301c14c8d60e21b815260040160405180910390fd5b6001600160a01b0382166000908152600660209081526040808320338452909152812080548392906103d09084906106d4565b90915550506040518181526001600160a01b0383169033907f4582a759bd41ffb3bf22459f9d7fce8f2a6338c24b72e7ce95b3f38d4ebb9f829060200161033f565b6001600160a01b0382166000908152600560209081526040808320338452909152812080548392906104459084906106d4565b90915550506040518181526001600160a01b0383169033907fe47648add52eaeb19d203abeac027448f529100956084297e9029d48e11503c79060200161033f565b600180546101bf90610703565b3360008181526006602090815260408083206001600160a01b03861684529091529020546104c2919061059a565b3360008181526006602090815260408083206001600160a01b0386168085529083528184208490559051928352917fb31cd01b602066fe749fca6051c464ab7118e31d1eac4c2c706f2b5dac6e7765910160405180910390a350565b806002600082825461053091906106d4565b90915550506001600160a01b03821660008181526003602090815260408083208054860190558051928352908201929092529081018290527fddf252ad1be2c89b69c2b068fc378daa952ba7f163c4a11628f55a4df523b3ef906060015b60405180910390a15050565b6001600160a01b038216600090815260036020526040812080548392906105c29084906106ec565b9091555050600280548290039055604080516001600160a01b0384168152600060208201529081018290527fddf252ad1be2c89b69c2b068fc378daa952ba7f163c4a11628f55a4df523b3ef9060600161058e565b80356001600160a01b038116811461062e57600080fd5b919050565b60006020828403121561064557600080fd5b61064e82610617565b9392505050565b6000806040838503121561066857600080fd5b61067183610617565b946020939093013593505050565b600060208083528351808285015260005b818110156106ac57858101830151858201604001528201610690565b818111156106be576000604083870101525b50601f01601f1916929092016040019392505050565b600082198211156106e7576106e761073e565b500190565b6000828210156106fe576106fe61073e565b500390565b600181811c9082168061071757607f821691505b6020821081141561073857634e487b7160e01b600052602260045260246000fd5b50919050565b634e487b7160e01b600052601160045260246000fdfea2646970667358221220680b440ee01d020f838c48f602d4f84189671286db4646948ea68db3e0b33c7f64736f6c63430008070033",
  "devdoc": {
    "kind": "dev",
    "methods": {
      "accept(address)": {
        "params": {
          "forgiver": "allows us to differentiate between accounts who forgive so no-one is                  forced to accept forgiveness from an account which may tarnish their history."
        }
      },
      "forgive(address,uint256)": {
        "params": {
          "amount": "the amount to forgive",
          "forgiven": "the address to be forgiven"
        }
      },
      "honour(address,uint256)": {
        "params": {
          "amount": "the amount of proposed HON to accept. This allows for multiple proposals to                 exist from the same account without having to accept them all at the same time.                 It has no check because, if the amount passed in is greater than what is stored                 in the mapping, we default to just minting the max in the mapping.",
          "proposer": "the address of the account which proposed this to ensure no-one is forced                 to accept HON they don't want to."
        }
      },
      "propose(address,uint256)": {
        "params": {
          "amount": "the amount of HON to be created once it is honoured into existence.",
          "receiver": "the address who is set to take on the HON once created"
        }
      }
    },
    "version": 1
  },
  "userdoc": {
    "kind": "user",
    "methods": {
      "accept(address)": {
        "notice": "erase HON by accepting the amount set in forgive()"
      },
      "forgive(address,uint256)": {
        "notice": "begin the process of erasing HON by setting the amount and address it should be removed from"
      },
      "honour(address,uint256)": {
        "notice": "create HON by accepting the amount set in propose()"
      },
      "propose(address,uint256)": {
        "notice": "begin the process of creating HON by setting the amount and address it should be added to"
      }
    },
    "version": 1
  },
  "storageLayout": {
    "storage": [
      {
        "astId": 12,
        "contract": "contracts/Honour.sol:Honour",
        "label": "name",
        "offset": 0,
        "slot": "0",
        "type": "t_string_storage"
      },
      {
        "astId": 14,
        "contract": "contracts/Honour.sol:Honour",
        "label": "symbol",
        "offset": 0,
        "slot": "1",
        "type": "t_string_storage"
      },
      {
        "astId": 18,
        "contract": "contracts/Honour.sol:Honour",
        "label": "totalSupply",
        "offset": 0,
        "slot": "2",
        "type": "t_uint256"
      },
      {
        "astId": 22,
        "contract": "contracts/Honour.sol:Honour",
        "label": "balanceOf",
        "offset": 0,
        "slot": "3",
        "type": "t_mapping(t_address,t_uint256)"
      },
      {
        "astId": 143,
        "contract": "contracts/Honour.sol:Honour",
        "label": "reserve",
        "offset": 0,
        "slot": "4",
        "type": "t_contract(ERC20)101"
      },
      {
        "astId": 149,
        "contract": "contracts/Honour.sol:Honour",
        "label": "proposal",
        "offset": 0,
        "slot": "5",
        "type": "t_mapping(t_address,t_mapping(t_address,t_uint256))"
      },
      {
        "astId": 155,
        "contract": "contracts/Honour.sol:Honour",
        "label": "forgiving",
        "offset": 0,
        "slot": "6",
        "type": "t_mapping(t_address,t_mapping(t_address,t_uint256))"
      }
    ],
    "types": {
      "t_address": {
        "encoding": "inplace",
        "label": "address",
        "numberOfBytes": "20"
      },
      "t_contract(ERC20)101": {
        "encoding": "inplace",
        "label": "contract ERC20",
        "numberOfBytes": "20"
      },
      "t_mapping(t_address,t_mapping(t_address,t_uint256))": {
        "encoding": "mapping",
        "key": "t_address",
        "label": "mapping(address => mapping(address => uint256))",
        "numberOfBytes": "32",
        "value": "t_mapping(t_address,t_uint256)"
      },
      "t_mapping(t_address,t_uint256)": {
        "encoding": "mapping",
        "key": "t_address",
        "label": "mapping(address => uint256)",
        "numberOfBytes": "32",
        "value": "t_uint256"
      },
      "t_string_storage": {
        "encoding": "bytes",
        "label": "string",
        "numberOfBytes": "32"
      },
      "t_uint256": {
        "encoding": "inplace",
        "label": "uint256",
        "numberOfBytes": "32"
      }
    }
  }
}