{
  "address": "0xB123B2d5C0932F2B13Fcf03763004f0800fF29dD",
  "abi": [
    {
      "inputs": [
        {
          "internalType": "address",
          "name": "_reserve",
          "type": "address"
        }
      ],
      "stateMutability": "nonpayable",
      "type": "constructor"
    },
    {
      "inputs": [
        {
          "internalType": "string",
          "name": "message",
          "type": "string"
        }
      ],
      "name": "Unbalanced",
      "type": "error"
    },
    {
      "anonymous": false,
      "inputs": [
        {
          "indexed": true,
          "internalType": "address",
          "name": "forgiver",
          "type": "address"
        },
        {
          "indexed": true,
          "internalType": "address",
          "name": "forgiven",
          "type": "address"
        },
        {
          "indexed": false,
          "internalType": "uint256",
          "name": "forgivingId",
          "type": "uint256"
        },
        {
          "indexed": false,
          "internalType": "uint256",
          "name": "amount",
          "type": "uint256"
        }
      ],
      "name": "Accepted",
      "type": "event"
    },
    {
      "anonymous": false,
      "inputs": [
        {
          "indexed": true,
          "internalType": "address",
          "name": "forgiver",
          "type": "address"
        },
        {
          "indexed": true,
          "internalType": "address",
          "name": "forgiven",
          "type": "address"
        },
        {
          "indexed": false,
          "internalType": "uint256",
          "name": "forgivingId",
          "type": "uint256"
        },
        {
          "indexed": false,
          "internalType": "uint256",
          "name": "amount",
          "type": "uint256"
        }
      ],
      "name": "Forgiven",
      "type": "event"
    },
    {
      "anonymous": false,
      "inputs": [
        {
          "indexed": true,
          "internalType": "address",
          "name": "proposer",
          "type": "address"
        },
        {
          "indexed": true,
          "internalType": "address",
          "name": "receiver",
          "type": "address"
        },
        {
          "indexed": false,
          "internalType": "uint256",
          "name": "proposalId",
          "type": "uint256"
        },
        {
          "indexed": false,
          "internalType": "uint256",
          "name": "amount",
          "type": "uint256"
        }
      ],
      "name": "Honoured",
      "type": "event"
    },
    {
      "anonymous": false,
      "inputs": [
        {
          "indexed": true,
          "internalType": "address",
          "name": "proposer",
          "type": "address"
        },
        {
          "indexed": true,
          "internalType": "address",
          "name": "receiver",
          "type": "address"
        },
        {
          "indexed": false,
          "internalType": "uint256",
          "name": "proposalId",
          "type": "uint256"
        },
        {
          "indexed": false,
          "internalType": "uint256",
          "name": "amount",
          "type": "uint256"
        }
      ],
      "name": "Proposed",
      "type": "event"
    },
    {
      "anonymous": false,
      "inputs": [
        {
          "indexed": false,
          "internalType": "address",
          "name": "from",
          "type": "address"
        },
        {
          "indexed": false,
          "internalType": "address",
          "name": "to",
          "type": "address"
        },
        {
          "indexed": false,
          "internalType": "uint256",
          "name": "amount",
          "type": "uint256"
        }
      ],
      "name": "Transfer",
      "type": "event"
    },
    {
      "inputs": [
        {
          "internalType": "address",
          "name": "forgiver",
          "type": "address"
        },
        {
          "internalType": "uint256",
          "name": "id",
          "type": "uint256"
        }
      ],
      "name": "accept",
      "outputs": [],
      "stateMutability": "nonpayable",
      "type": "function"
    },
    {
      "inputs": [
        {
          "internalType": "address",
          "name": "",
          "type": "address"
        }
      ],
      "name": "balanceOf",
      "outputs": [
        {
          "internalType": "uint256",
          "name": "",
          "type": "uint256"
        }
      ],
      "stateMutability": "view",
      "type": "function"
    },
    {
      "inputs": [],
      "name": "decimals",
      "outputs": [
        {
          "internalType": "uint8",
          "name": "",
          "type": "uint8"
        }
      ],
      "stateMutability": "view",
      "type": "function"
    },
    {
      "inputs": [
        {
          "internalType": "address",
          "name": "forgiven",
          "type": "address"
        },
        {
          "internalType": "uint256",
          "name": "amount",
          "type": "uint256"
        }
      ],
      "name": "forgive",
      "outputs": [],
      "stateMutability": "nonpayable",
      "type": "function"
    },
    {
      "inputs": [
        {
          "internalType": "address",
          "name": "proposer",
          "type": "address"
        },
        {
          "internalType": "uint256",
          "name": "id",
          "type": "uint256"
        }
      ],
      "name": "honour",
      "outputs": [],
      "stateMutability": "nonpayable",
      "type": "function"
    },
    {
      "inputs": [],
      "name": "name",
      "outputs": [
        {
          "internalType": "string",
          "name": "",
          "type": "string"
        }
      ],
      "stateMutability": "view",
      "type": "function"
    },
    {
      "inputs": [
        {
          "internalType": "address",
          "name": "receiver",
          "type": "address"
        },
        {
          "internalType": "uint256",
          "name": "amount",
          "type": "uint256"
        }
      ],
      "name": "propose",
      "outputs": [],
      "stateMutability": "nonpayable",
      "type": "function"
    },
    {
      "inputs": [],
      "name": "reserve",
      "outputs": [
        {
          "internalType": "contract ERC20",
          "name": "",
          "type": "address"
        }
      ],
      "stateMutability": "view",
      "type": "function"
    },
    {
      "inputs": [],
      "name": "symbol",
      "outputs": [
        {
          "internalType": "string",
          "name": "",
          "type": "string"
        }
      ],
      "stateMutability": "view",
      "type": "function"
    },
    {
      "inputs": [],
      "name": "totalSupply",
      "outputs": [
        {
          "internalType": "uint256",
          "name": "",
          "type": "uint256"
        }
      ],
      "stateMutability": "view",
      "type": "function"
    }
  ],
  "transactionHash": "0x652ea8f09786ae25300d1bbf9e9adda3aead239410e8a7aa591f424f9c49f797",
  "args": [
    "0x1FD2beFB832695f5643C14D90214461Bca4119e2"
  ],
  "numDeployments": 1,
  "solcInputHash": "152d8856a8d765e25b3395855b2e9d2c",
  "bytecode": "0x60a06040523480156200001157600080fd5b5060405162000cb638038062000cb6833981016040819052620000349162000193565b60408051808201825260068152652427a727aaa960d11b6020808301918252835180850190945260038452622427a760e91b908401528151919291601291620000819160009190620000ed565b50815162000097906001906020850190620000ed565b5060f81b7fff000000000000000000000000000000000000000000000000000000000000001660805250506001600455600580546001600160a01b0319166001600160a01b039290921691909117905562000202565b828054620000fb90620001c5565b90600052602060002090601f0160209004810192826200011f57600085556200016a565b82601f106200013a57805160ff19168380011785556200016a565b828001600101855582156200016a579182015b828111156200016a5782518255916020019190600101906200014d565b50620001789291506200017c565b5090565b5b808211156200017857600081556001016200017d565b600060208284031215620001a657600080fd5b81516001600160a01b0381168114620001be57600080fd5b9392505050565b600181811c90821680620001da57607f821691505b60208210811415620001fc57634e487b7160e01b600052602260045260246000fd5b50919050565b60805160f81c610a956200022160003960006101050152610a956000f3fe608060405234801561001057600080fd5b506004361061009e5760003560e01c8063589de5df11610066578063589de5df1461013957806370a082311461014c57806395d89b411461016c578063cd3293de14610174578063cd67571c1461019f57600080fd5b806306fdde03146100a357806318160ddd146100c157806318be5af9146100d857806321038b4c146100ed578063313ce56714610100575b600080fd5b6100ab6101b2565b6040516100b8919061096f565b60405180910390f35b6100ca60025481565b6040519081526020016100b8565b6100eb6100e6366004610945565b610240565b005b6100eb6100fb366004610945565b6103b8565b6101277f000000000000000000000000000000000000000000000000000000000000000081565b60405160ff90911681526020016100b8565b6100eb610147366004610945565b610568565b6100ca61015a366004610923565b60036020526000908152604090205481565b6100ab61069c565b600554610187906001600160a01b031681565b6040516001600160a01b0390911681526020016100b8565b6100eb6101ad366004610945565b6106a9565b600080546101bf906109f3565b80601f01602080910402602001604051908101604052809291908181526020018280546101eb906109f3565b80156102385780601f1061020d57610100808354040283529160200191610238565b820191906000526020600020905b81548152906001019060200180831161021b57829003601f168201915b505050505081565b600260045414156102985760405162461bcd60e51b815260206004820152601f60248201527f5265656e7472616e637947756172643a207265656e7472616e742063616c6c0060448201526064015b60405180910390fd5b60026004556001600160a01b038216600090815260066020908152604080832033845282528083208484529091529020546103095760405162461bcd60e51b81526020600482015260116024820152702737ba3434b733903a37903437b737bab960791b604482015260640161028f565b6001600160a01b0382166000908152600660209081526040808320338085529083528184208585529092529091205490610343908261080e565b6001600160a01b03831660008181526006602090815260408083203380855290835281842087855283528184209390935580518681529182018590529192917f6c9bd2efd2c9afeaf83a90107cee7aa09e08c9e83cf240d2ea5ac4ed05a9c28591015b60405180910390a35050600160045550565b336001600160a01b03831614156104065760405162461bcd60e51b815260206004820152601260248201527121b0b713ba103337b933b4bb329039b2b63360711b604482015260640161028f565b6000811161044c5760405162461bcd60e51b81526020600482015260136024820152720466f7267697665206d6f7265207468616e203606c1b604482015260640161028f565b3360009081526003602052604090205481118061048057506001600160a01b03821660009081526003602052604090205481115b156104c357604051636fd97e5f60e01b8152602060048201526012602482015271556e6d6174636865642062616c616e63657360701b604482015260640161028f565b600980549060006104d383610a2e565b90915550503360009081526007602090815260408083206001600160a01b038616845282528083206009548452909152812080548392906105159084906109c4565b909155505060095460408051918252602082018390526001600160a01b0384169133917f77a0f9592e2384c121b0353ed0580ac46186852a8f251aefaaa3bd5fdd25923e91015b60405180910390a35050565b336001600160a01b03831614156105b95760405162461bcd60e51b815260206004820152601560248201527421b0b713ba10383937b837b9b2903a379039b2b63360591b604482015260640161028f565b600081116105ff5760405162461bcd60e51b8152602060048201526013602482015272050726f706f7365206d6f7265207468616e203606c1b604482015260640161028f565b6008805490600061060f83610a2e565b90915550503360009081526006602090815260408083206001600160a01b038616845282528083206008548452909152812080548392906106519084906109c4565b909155505060085460408051918252602082018390526001600160a01b0384169133917fd3b765bdd25a28d7041ee634ba9ebd9edadd7677d094ffa3ce74ade3aceaebd9910161055c565b600180546101bf906109f3565b600260045414156106fc5760405162461bcd60e51b815260206004820152601f60248201527f5265656e7472616e637947756172643a207265656e7472616e742063616c6c00604482015260640161028f565b60026004556001600160a01b0382166000908152600760209081526040808320338452825280832084845290915290205461076d5760405162461bcd60e51b8152602060048201526011602482015270139bdd1a1a5b99c81d1bc81858d8d95c1d607a1b604482015260640161028f565b6001600160a01b03821660009081526007602090815260408083203380855290835281842085855290925290912054906107a7908261088a565b6001600160a01b03831660008181526007602090815260408083203380855290835281842087855283528184209390935580518681529182018590529192917fd8f3325f42e4346c3cf9d399abf523adacb0a3f95427647fe22149ecf5a379c091016103a6565b806002600082825461082091906109c4565b90915550506001600160a01b03821660008181526003602090815260408083208054860190558051928352908201929092529081018290527fddf252ad1be2c89b69c2b068fc378daa952ba7f163c4a11628f55a4df523b3ef906060015b60405180910390a15050565b6001600160a01b038216600090815260036020526040812080548392906108b29084906109dc565b9091555050600280548290039055604080516001600160a01b0384168152600060208201529081018290527fddf252ad1be2c89b69c2b068fc378daa952ba7f163c4a11628f55a4df523b3ef9060600161087e565b80356001600160a01b038116811461091e57600080fd5b919050565b60006020828403121561093557600080fd5b61093e82610907565b9392505050565b6000806040838503121561095857600080fd5b61096183610907565b946020939093013593505050565b600060208083528351808285015260005b8181101561099c57858101830151858201604001528201610980565b818111156109ae576000604083870101525b50601f01601f1916929092016040019392505050565b600082198211156109d7576109d7610a49565b500190565b6000828210156109ee576109ee610a49565b500390565b600181811c90821680610a0757607f821691505b60208210811415610a2857634e487b7160e01b600052602260045260246000fd5b50919050565b6000600019821415610a4257610a42610a49565b5060010190565b634e487b7160e01b600052601160045260246000fdfea2646970667358221220b62d3552d19e2bcd31af64de92dccee32163af029923a5e3e7b005221abcd94d64736f6c63430008070033",
  "devdoc": {
    "kind": "dev",
    "methods": {
      "accept(address,uint256)": {
        "params": {
          "forgiver": "the address whose forgiveness is being accepted",
          "id": "the unique ID of the forgiveness being accepted"
        }
      },
      "forgive(address,uint256)": {
        "params": {
          "amount": "the amount to forgive",
          "forgiven": "the address to be forgiven"
        }
      },
      "honour(address,uint256)": {
        "params": {
          "id": "the unique ID of the proposal being honoured",
          "proposer": "the address whose proposal is being honoured"
        }
      },
      "propose(address,uint256)": {
        "params": {
          "amount": "the amount of HON to be created once it is honoured into existence.",
          "receiver": "the address who is set to take on the HON once created"
        }
      }
    },
    "version": 1
  },
  "userdoc": {
    "kind": "user",
    "methods": {
      "accept(address,uint256)": {
        "notice": "erase HON by accepting the amount set in forgive()"
      },
      "forgive(address,uint256)": {
        "notice": "begin the process of erasing HON by setting the amount and address it should be removed from"
      },
      "honour(address,uint256)": {
        "notice": "create HON by accepting the amount set in propose()"
      },
      "propose(address,uint256)": {
        "notice": "begin the process of creating HON by setting the amount and address it should be added to"
      }
    },
    "version": 1
  },
  "storageLayout": {
    "storage": [
      {
        "astId": 52,
        "contract": "contracts/Honour.sol:Honour",
        "label": "name",
        "offset": 0,
        "slot": "0",
        "type": "t_string_storage"
      },
      {
        "astId": 54,
        "contract": "contracts/Honour.sol:Honour",
        "label": "symbol",
        "offset": 0,
        "slot": "1",
        "type": "t_string_storage"
      },
      {
        "astId": 58,
        "contract": "contracts/Honour.sol:Honour",
        "label": "totalSupply",
        "offset": 0,
        "slot": "2",
        "type": "t_uint256"
      },
      {
        "astId": 62,
        "contract": "contracts/Honour.sol:Honour",
        "label": "balanceOf",
        "offset": 0,
        "slot": "3",
        "type": "t_mapping(t_address,t_uint256)"
      },
      {
        "astId": 10,
        "contract": "contracts/Honour.sol:Honour",
        "label": "_status",
        "offset": 0,
        "slot": "4",
        "type": "t_uint256"
      },
      {
        "astId": 196,
        "contract": "contracts/Honour.sol:Honour",
        "label": "reserve",
        "offset": 0,
        "slot": "5",
        "type": "t_contract(ERC20)141"
      },
      {
        "astId": 204,
        "contract": "contracts/Honour.sol:Honour",
        "label": "proposal",
        "offset": 0,
        "slot": "6",
        "type": "t_mapping(t_address,t_mapping(t_address,t_mapping(t_uint256,t_uint256)))"
      },
      {
        "astId": 212,
        "contract": "contracts/Honour.sol:Honour",
        "label": "forgiving",
        "offset": 0,
        "slot": "7",
        "type": "t_mapping(t_address,t_mapping(t_address,t_mapping(t_uint256,t_uint256)))"
      },
      {
        "astId": 214,
        "contract": "contracts/Honour.sol:Honour",
        "label": "proposalId",
        "offset": 0,
        "slot": "8",
        "type": "t_uint256"
      },
      {
        "astId": 216,
        "contract": "contracts/Honour.sol:Honour",
        "label": "forgivingId",
        "offset": 0,
        "slot": "9",
        "type": "t_uint256"
      }
    ],
    "types": {
      "t_address": {
        "encoding": "inplace",
        "label": "address",
        "numberOfBytes": "20"
      },
      "t_contract(ERC20)141": {
        "encoding": "inplace",
        "label": "contract ERC20",
        "numberOfBytes": "20"
      },
      "t_mapping(t_address,t_mapping(t_address,t_mapping(t_uint256,t_uint256)))": {
        "encoding": "mapping",
        "key": "t_address",
        "label": "mapping(address => mapping(address => mapping(uint256 => uint256)))",
        "numberOfBytes": "32",
        "value": "t_mapping(t_address,t_mapping(t_uint256,t_uint256))"
      },
      "t_mapping(t_address,t_mapping(t_uint256,t_uint256))": {
        "encoding": "mapping",
        "key": "t_address",
        "label": "mapping(address => mapping(uint256 => uint256))",
        "numberOfBytes": "32",
        "value": "t_mapping(t_uint256,t_uint256)"
      },
      "t_mapping(t_address,t_uint256)": {
        "encoding": "mapping",
        "key": "t_address",
        "label": "mapping(address => uint256)",
        "numberOfBytes": "32",
        "value": "t_uint256"
      },
      "t_mapping(t_uint256,t_uint256)": {
        "encoding": "mapping",
        "key": "t_uint256",
        "label": "mapping(uint256 => uint256)",
        "numberOfBytes": "32",
        "value": "t_uint256"
      },
      "t_string_storage": {
        "encoding": "bytes",
        "label": "string",
        "numberOfBytes": "32"
      },
      "t_uint256": {
        "encoding": "inplace",
        "label": "uint256",
        "numberOfBytes": "32"
      }
    }
  }
}